{
  "contractName": "ClearmeIdentityManager",
  "abi": [
    {
      "constant": true,
      "inputs": [
        {
          "name": "",
          "type": "address"
        }
      ],
      "name": "migrationNewAddress",
      "outputs": [
        {
          "name": "",
          "type": "address"
        }
      ],
      "payable": false,
      "stateMutability": "view",
      "type": "function"
    },
    {
      "constant": true,
      "inputs": [
        {
          "name": "",
          "type": "address"
        }
      ],
      "name": "migrationInitiated",
      "outputs": [
        {
          "name": "",
          "type": "uint256"
        }
      ],
      "payable": false,
      "stateMutability": "view",
      "type": "function"
    },
    {
      "constant": false,
      "inputs": [
        {
          "name": "identity",
          "type": "address"
        }
      ],
      "name": "migrate",
      "outputs": [],
      "payable": false,
      "stateMutability": "nonpayable",
      "type": "function"
    }
  ],
  "bytecode": "0x6060604052341561000f57600080fd5b61046e8061001e6000396000f300606060405260043610610057576000357c0100000000000000000000000000000000000000000000000000000000900463ffffffff168063422e33f31461005c578063c778427b146100d5578063ce5494bb14610122575b600080fd5b341561006757600080fd5b610093600480803573ffffffffffffffffffffffffffffffffffffffff1690602001909190505061015b565b604051808273ffffffffffffffffffffffffffffffffffffffff1673ffffffffffffffffffffffffffffffffffffffff16815260200191505060405180910390f35b34156100e057600080fd5b61010c600480803573ffffffffffffffffffffffffffffffffffffffff1690602001909190505061018e565b6040518082815260200191505060405180910390f35b341561012d57600080fd5b610159600480803573ffffffffffffffffffffffffffffffffffffffff169060200190919050506101a6565b005b60046020528060005260406000206000915054906101000a900473ffffffffffffffffffffffffffffffffffffffff1681565b60036020528060005260406000206000915090505481565b6000600460008373ffffffffffffffffffffffffffffffffffffffff1673ffffffffffffffffffffffffffffffffffffffff16815260200190815260200160002060009054906101000a900473ffffffffffffffffffffffffffffffffffffffff169050600360008373ffffffffffffffffffffffffffffffffffffffff1673ffffffffffffffffffffffffffffffffffffffff16815260200190815260200160002060009055600460008373ffffffffffffffffffffffffffffffffffffffff1673ffffffffffffffffffffffffffffffffffffffff16815260200190815260200160002060006101000a81549073ffffffffffffffffffffffffffffffffffffffff02191690558173ffffffffffffffffffffffffffffffffffffffff1663ca361c08826040518263ffffffff167c0100000000000000000000000000000000000000000000000000000000028152600401808273ffffffffffffffffffffffffffffffffffffffff1673ffffffffffffffffffffffffffffffffffffffff168152602001915050600060405180830381600087803b151561034957600080fd5b6102c65a03f1151561035a57600080fd5b505050600160008373ffffffffffffffffffffffffffffffffffffffff1673ffffffffffffffffffffffffffffffffffffffff16815260200190815260200160002060006101000a81549073ffffffffffffffffffffffffffffffffffffffff02191690556000808373ffffffffffffffffffffffffffffffffffffffff1673ffffffffffffffffffffffffffffffffffffffff16815260200190815260200160002060003373ffffffffffffffffffffffffffffffffffffffff1673ffffffffffffffffffffffffffffffffffffffff1681526020019081526020016000206000905550505600a165627a7a723058201df693f9ed2e733ff86ba2da43aede365d05fd34274c14c783e7a7e2e77e6afb0029",
  "source": "pragma solidity ^0.4.0;\nimport \"./ClearmeProxy.sol\";\n\ncontract ClearmeIdentityManager {\n    mapping(address => mapping(address => uint)) owners;\n    mapping(address => address) recoveryKeys;\n    mapping(address => mapping(address => uint)) limiter;\n    mapping(address => uint) public migrationInitiated;\n    mapping(address => address) public migrationNewAddress;\n\n    modifier validAddress(address addr) { //protects against some weird attacks\n        require(addr != address(0));\n        _;\n    }\n\n//    function createIdentity(address owner, address recoveryKey) public validAddress(recoveryKey) {\n//        Proxy identity = new Proxy();\n//        owners[identity][owner] = now - adminTimeLock; // This is to ensure original owner has full power from day one\n//        recoveryKeys[identity] = recoveryKey;\n//        LogIdentityCreated(identity, msg.sender, owner,  recoveryKey);\n//    }\n\n    // Will be restricted to only past owners\n    function migrate(ClearmeProxy identity) public {\n        address newIdManager = migrationNewAddress[identity];\n        delete migrationInitiated[identity];\n        delete migrationNewAddress[identity];\n        identity.transfer_implementer(newIdManager);\n        delete recoveryKeys[identity];\n\n        delete owners[identity][msg.sender];\n\n    }\n}\n\n\n",
  "sourcePath": "/Volumes/Seagate/projects/clear-me-identity/contracts/ClearmeIdentityManager.sol",
  "compiler": {
    "name": "solc",
    "version": "0.4.19+commit.c4cbbb05.Emscripten.clang"
  },
  "schemaVersion": "2.0.0",
  "updatedAt": "2018-05-03T23:30:38.113Z"
}